{
  "_format": "hh-sol-artifact-1",
  "contractName": "DebateVictoryNFT",
  "sourceName": "src/DebateVictoryNFT.sol",
  "abi": [
    {
      "inputs": [],
      "stateMutability": "nonpayable",
      "type": "constructor"
    },
    {
      "inputs": [
        {
          "internalType": "address",
          "name": "sender",
          "type": "address"
        },
        {
          "internalType": "uint256",
          "name": "tokenId",
          "type": "uint256"
        },
        {
          "internalType": "address",
          "name": "owner",
          "type": "address"
        }
      ],
      "name": "ERC721IncorrectOwner",
      "type": "error"
    },
    {
      "inputs": [
        {
          "internalType": "address",
          "name": "operator",
          "type": "address"
        },
        {
          "internalType": "uint256",
          "name": "tokenId",
          "type": "uint256"
        }
      ],
      "name": "ERC721InsufficientApproval",
      "type": "error"
    },
    {
      "inputs": [
        {
          "internalType": "address",
          "name": "approver",
          "type": "address"
        }
      ],
      "name": "ERC721InvalidApprover",
      "type": "error"
    },
    {
      "inputs": [
        {
          "internalType": "address",
          "name": "operator",
          "type": "address"
        }
      ],
      "name": "ERC721InvalidOperator",
      "type": "error"
    },
    {
      "inputs": [
        {
          "internalType": "address",
          "name": "owner",
          "type": "address"
        }
      ],
      "name": "ERC721InvalidOwner",
      "type": "error"
    },
    {
      "inputs": [
        {
          "internalType": "address",
          "name": "receiver",
          "type": "address"
        }
      ],
      "name": "ERC721InvalidReceiver",
      "type": "error"
    },
    {
      "inputs": [
        {
          "internalType": "address",
          "name": "sender",
          "type": "address"
        }
      ],
      "name": "ERC721InvalidSender",
      "type": "error"
    },
    {
      "inputs": [
        {
          "internalType": "uint256",
          "name": "tokenId",
          "type": "uint256"
        }
      ],
      "name": "ERC721NonexistentToken",
      "type": "error"
    },
    {
      "inputs": [
        {
          "internalType": "address",
          "name": "owner",
          "type": "address"
        }
      ],
      "name": "OwnableInvalidOwner",
      "type": "error"
    },
    {
      "inputs": [
        {
          "internalType": "address",
          "name": "account",
          "type": "address"
        }
      ],
      "name": "OwnableUnauthorizedAccount",
      "type": "error"
    },
    {
      "anonymous": false,
      "inputs": [
        {
          "indexed": true,
          "internalType": "address",
          "name": "owner",
          "type": "address"
        },
        {
          "indexed": true,
          "internalType": "address",
          "name": "approved",
          "type": "address"
        },
        {
          "indexed": true,
          "internalType": "uint256",
          "name": "tokenId",
          "type": "uint256"
        }
      ],
      "name": "Approval",
      "type": "event"
    },
    {
      "anonymous": false,
      "inputs": [
        {
          "indexed": true,
          "internalType": "address",
          "name": "owner",
          "type": "address"
        },
        {
          "indexed": true,
          "internalType": "address",
          "name": "operator",
          "type": "address"
        },
        {
          "indexed": false,
          "internalType": "bool",
          "name": "approved",
          "type": "bool"
        }
      ],
      "name": "ApprovalForAll",
      "type": "event"
    },
    {
      "anonymous": false,
      "inputs": [
        {
          "indexed": false,
          "internalType": "uint256",
          "name": "_fromTokenId",
          "type": "uint256"
        },
        {
          "indexed": false,
          "internalType": "uint256",
          "name": "_toTokenId",
          "type": "uint256"
        }
      ],
      "name": "BatchMetadataUpdate",
      "type": "event"
    },
    {
      "anonymous": false,
      "inputs": [
        {
          "indexed": false,
          "internalType": "uint256",
          "name": "_tokenId",
          "type": "uint256"
        }
      ],
      "name": "MetadataUpdate",
      "type": "event"
    },
    {
      "anonymous": false,
      "inputs": [
        {
          "indexed": true,
          "internalType": "address",
          "name": "previousOwner",
          "type": "address"
        },
        {
          "indexed": true,
          "internalType": "address",
          "name": "newOwner",
          "type": "address"
        }
      ],
      "name": "OwnershipTransferred",
      "type": "event"
    },
    {
      "anonymous": false,
      "inputs": [
        {
          "indexed": true,
          "internalType": "address",
          "name": "from",
          "type": "address"
        },
        {
          "indexed": true,
          "internalType": "address",
          "name": "to",
          "type": "address"
        },
        {
          "indexed": true,
          "internalType": "uint256",
          "name": "tokenId",
          "type": "uint256"
        }
      ],
      "name": "Transfer",
      "type": "event"
    },
    {
      "anonymous": false,
      "inputs": [
        {
          "indexed": true,
          "internalType": "uint256",
          "name": "tokenId",
          "type": "uint256"
        },
        {
          "indexed": true,
          "internalType": "bytes32",
          "name": "debateId",
          "type": "bytes32"
        },
        {
          "indexed": true,
          "internalType": "address",
          "name": "winner",
          "type": "address"
        },
        {
          "indexed": false,
          "internalType": "string",
          "name": "topic",
          "type": "string"
        }
      ],
      "name": "VictoryNFTMinted",
      "type": "event"
    },
    {
      "inputs": [
        {
          "internalType": "address",
          "name": "to",
          "type": "address"
        },
        {
          "internalType": "uint256",
          "name": "tokenId",
          "type": "uint256"
        }
      ],
      "name": "approve",
      "outputs": [],
      "stateMutability": "nonpayable",
      "type": "function"
    },
    {
      "inputs": [
        {
          "internalType": "address",
          "name": "",
          "type": "address"
        }
      ],
      "name": "authorizedMinters",
      "outputs": [
        {
          "internalType": "bool",
          "name": "",
          "type": "bool"
        }
      ],
      "stateMutability": "view",
      "type": "function"
    },
    {
      "inputs": [
        {
          "internalType": "address",
          "name": "owner",
          "type": "address"
        }
      ],
      "name": "balanceOf",
      "outputs": [
        {
          "internalType": "uint256",
          "name": "",
          "type": "uint256"
        }
      ],
      "stateMutability": "view",
      "type": "function"
    },
    {
      "inputs": [
        {
          "internalType": "bytes32",
          "name": "",
          "type": "bytes32"
        }
      ],
      "name": "debateToToken",
      "outputs": [
        {
          "internalType": "uint256",
          "name": "",
          "type": "uint256"
        }
      ],
      "stateMutability": "view",
      "type": "function"
    },
    {
      "inputs": [
        {
          "internalType": "uint256",
          "name": "tokenId",
          "type": "uint256"
        }
      ],
      "name": "getApproved",
      "outputs": [
        {
          "internalType": "address",
          "name": "",
          "type": "address"
        }
      ],
      "stateMutability": "view",
      "type": "function"
    },
    {
      "inputs": [
        {
          "internalType": "bytes32",
          "name": "debateId",
          "type": "bytes32"
        }
      ],
      "name": "getTokenForDebate",
      "outputs": [
        {
          "internalType": "uint256",
          "name": "",
          "type": "uint256"
        }
      ],
      "stateMutability": "view",
      "type": "function"
    },
    {
      "inputs": [
        {
          "internalType": "address",
          "name": "owner",
          "type": "address"
        },
        {
          "internalType": "address",
          "name": "operator",
          "type": "address"
        }
      ],
      "name": "isApprovedForAll",
      "outputs": [
        {
          "internalType": "bool",
          "name": "",
          "type": "bool"
        }
      ],
      "stateMutability": "view",
      "type": "function"
    },
    {
      "inputs": [
        {
          "internalType": "bytes32",
          "name": "debateId",
          "type": "bytes32"
        }
      ],
      "name": "isDebateMinted",
      "outputs": [
        {
          "internalType": "bool",
          "name": "",
          "type": "bool"
        }
      ],
      "stateMutability": "view",
      "type": "function"
    },
    {
      "inputs": [
        {
          "internalType": "address",
          "name": "winner",
          "type": "address"
        },
        {
          "internalType": "bytes32",
          "name": "debateId",
          "type": "bytes32"
        },
        {
          "internalType": "string",
          "name": "topic",
          "type": "string"
        },
        {
          "internalType": "string",
          "name": "uri",
          "type": "string"
        }
      ],
      "name": "mintVictoryNFT",
      "outputs": [
        {
          "internalType": "uint256",
          "name": "",
          "type": "uint256"
        }
      ],
      "stateMutability": "nonpayable",
      "type": "function"
    },
    {
      "inputs": [],
      "name": "name",
      "outputs": [
        {
          "internalType": "string",
          "name": "",
          "type": "string"
        }
      ],
      "stateMutability": "view",
      "type": "function"
    },
    {
      "inputs": [],
      "name": "owner",
      "outputs": [
        {
          "internalType": "address",
          "name": "",
          "type": "address"
        }
      ],
      "stateMutability": "view",
      "type": "function"
    },
    {
      "inputs": [
        {
          "internalType": "uint256",
          "name": "tokenId",
          "type": "uint256"
        }
      ],
      "name": "ownerOf",
      "outputs": [
        {
          "internalType": "address",
          "name": "",
          "type": "address"
        }
      ],
      "stateMutability": "view",
      "type": "function"
    },
    {
      "inputs": [],
      "name": "renounceOwnership",
      "outputs": [],
      "stateMutability": "nonpayable",
      "type": "function"
    },
    {
      "inputs": [
        {
          "internalType": "address",
          "name": "from",
          "type": "address"
        },
        {
          "internalType": "address",
          "name": "to",
          "type": "address"
        },
        {
          "internalType": "uint256",
          "name": "tokenId",
          "type": "uint256"
        }
      ],
      "name": "safeTransferFrom",
      "outputs": [],
      "stateMutability": "nonpayable",
      "type": "function"
    },
    {
      "inputs": [
        {
          "internalType": "address",
          "name": "from",
          "type": "address"
        },
        {
          "internalType": "address",
          "name": "to",
          "type": "address"
        },
        {
          "internalType": "uint256",
          "name": "tokenId",
          "type": "uint256"
        },
        {
          "internalType": "bytes",
          "name": "data",
          "type": "bytes"
        }
      ],
      "name": "safeTransferFrom",
      "outputs": [],
      "stateMutability": "nonpayable",
      "type": "function"
    },
    {
      "inputs": [
        {
          "internalType": "address",
          "name": "operator",
          "type": "address"
        },
        {
          "internalType": "bool",
          "name": "approved",
          "type": "bool"
        }
      ],
      "name": "setApprovalForAll",
      "outputs": [],
      "stateMutability": "nonpayable",
      "type": "function"
    },
    {
      "inputs": [
        {
          "internalType": "address",
          "name": "minter",
          "type": "address"
        },
        {
          "internalType": "bool",
          "name": "authorized",
          "type": "bool"
        }
      ],
      "name": "setMinterAuthorization",
      "outputs": [],
      "stateMutability": "nonpayable",
      "type": "function"
    },
    {
      "inputs": [
        {
          "internalType": "bytes4",
          "name": "interfaceId",
          "type": "bytes4"
        }
      ],
      "name": "supportsInterface",
      "outputs": [
        {
          "internalType": "bool",
          "name": "",
          "type": "bool"
        }
      ],
      "stateMutability": "view",
      "type": "function"
    },
    {
      "inputs": [],
      "name": "symbol",
      "outputs": [
        {
          "internalType": "string",
          "name": "",
          "type": "string"
        }
      ],
      "stateMutability": "view",
      "type": "function"
    },
    {
      "inputs": [
        {
          "internalType": "uint256",
          "name": "",
          "type": "uint256"
        }
      ],
      "name": "tokenMetadata",
      "outputs": [
        {
          "internalType": "bytes32",
          "name": "debateId",
          "type": "bytes32"
        },
        {
          "internalType": "address",
          "name": "winner",
          "type": "address"
        },
        {
          "internalType": "uint256",
          "name": "mintedAt",
          "type": "uint256"
        },
        {
          "internalType": "string",
          "name": "topic",
          "type": "string"
        }
      ],
      "stateMutability": "view",
      "type": "function"
    },
    {
      "inputs": [
        {
          "internalType": "uint256",
          "name": "tokenId",
          "type": "uint256"
        }
      ],
      "name": "tokenURI",
      "outputs": [
        {
          "internalType": "string",
          "name": "",
          "type": "string"
        }
      ],
      "stateMutability": "view",
      "type": "function"
    },
    {
      "inputs": [],
      "name": "totalSupply",
      "outputs": [
        {
          "internalType": "uint256",
          "name": "",
          "type": "uint256"
        }
      ],
      "stateMutability": "view",
      "type": "function"
    },
    {
      "inputs": [
        {
          "internalType": "address",
          "name": "from",
          "type": "address"
        },
        {
          "internalType": "address",
          "name": "to",
          "type": "address"
        },
        {
          "internalType": "uint256",
          "name": "tokenId",
          "type": "uint256"
        }
      ],
      "name": "transferFrom",
      "outputs": [],
      "stateMutability": "nonpayable",
      "type": "function"
    },
    {
      "inputs": [
        {
          "internalType": "address",
          "name": "newOwner",
          "type": "address"
        }
      ],
      "name": "transferOwnership",
      "outputs": [],
      "stateMutability": "nonpayable",
      "type": "function"
    }
  ],
  "bytecode": "0x608034620003a7576001600160401b039060408181018381118382101762000391578152601682526020927f506f6e746966662044656261746520566963746f7279000000000000000000008484015281519082820182811082821117620003915783526007825266564943544f525960c81b85830152835181811162000391576000928354916001968784811c9416801562000386575b8985101462000372578190601f948581116200031f575b508990858311600114620002bb578792620002af575b5050600019600383901b1c191690871b1784555b80519283116200029b5785548681811c9116801562000290575b888210146200027c579081838594931162000227575b5087918311600114620001c3578492620001b7575b5050600019600383901b1c191690841b1783555b3315620001a15760078054336001600160a01b031982168117909255835195600b9290916001600160a01b03167f8be0079c531659141344cd1fd0a4f28419497f9722a3daafe3b4186f6b6457e08580a33383525220805460ff1916821790556008556116789081620003ad8239f35b6024915190631e4fbdf760e01b82526004820152fd5b0151905038806200011d565b8685528785208794509190601f198416865b8a828210620002105750508411620001f6575b505050811b01835562000131565b015160001960f88460031b161c19169055388080620001e8565b8385015186558a97909501949384019301620001d5565b909192508685528785208380860160051c8201928a871062000272575b9186958a929594930160051c01915b8281106200026357505062000108565b87815586955089910162000253565b9250819262000244565b634e487b7160e01b85526022600452602485fd5b90607f1690620000f2565b634e487b7160e01b84526041600452602484fd5b015190503880620000c4565b8780528a88208a94509190601f198416895b8d828210620003085750508411620002ee575b505050811b018455620000d8565b015160001960f88460031b161c19169055388080620002e0565b8385015186558d97909501949384019301620002cd565b9091508680528987208580850160051c8201928c861062000368575b918b91869594930160051c01915b82811062000359575050620000ae565b8981558594508b910162000349565b925081926200033b565b634e487b7160e01b86526022600452602486fd5b93607f169362000097565b634e487b7160e01b600052604160045260246000fd5b600080fdfe608080604052600436101561001357600080fd5b60003560e01c90816301ffc9a71461100a5750806306fdde0314610f67578063081812fc14610f29578063095ea7b314610e4257806318160ddd14610e1757806323b872dd14610e005780633277672714610dd2578063378c2b8614610d9257806342842e0e14610d645780636352211e14610d345780636914db6014610ccb57806370a0823114610c72578063715018a614610c15578063808d98eb146104e65780638da5cb5b146104bd57806395d89b41146103de578063a22cb46514610346578063aa2fe91b14610307578063b140aacd146102db578063b2d76010146102db578063b88d4fde1461026d578063c87b56dd14610210578063e985e9c5146101ba5763f2fde38b1461012757600080fd5b346101b55760203660031901126101b5576101406110cf565b6101486112ee565b6001600160a01b0390811690811561019c57600754826bffffffffffffffffffffffff60a01b821617600755167f8be0079c531659141344cd1fd0a4f28419497f9722a3daafe3b4186f6b6457e0600080a3005b604051631e4fbdf760e01b815260006004820152602490fd5b600080fd5b346101b55760403660031901126101b5576101d36110cf565b6101db6110e5565b9060018060a01b03809116600052600560205260406000209116600052602052602060ff604060002054166040519015158152f35b346101b55760203660031901126101b55760043561022d816114b9565b50600052600660205261026961024660406000206111d7565b600060405161025481611199565b5260405191829160208352602083019061108f565b0390f35b346101b55760803660031901126101b5576102866110cf565b61028e6110e5565b906044356064359267ffffffffffffffff84116101b557366023850112156101b5576102c76102d9943690602481600401359101611299565b926102d383838361131a565b336114f4565b005b346101b55760203660031901126101b55760043560005260096020526020604060002054604051908152f35b346101b55760203660031901126101b5576001600160a01b036103286110cf565b16600052600b602052602060ff604060002054166040519015158152f35b346101b55761035436611130565b6001600160a01b039091169081156103c5573360005260056020526040600020826000526020526103958160406000209060ff801983541691151516179055565b60405190151581527f17307eab39ab6107e8899845ad3d59bd9653f200f220920489ca2b5937696c3160203392a3005b604051630b61174360e31b815260048101839052602490fd5b346101b55760003660031901126101b557604051600060018054906104028261115f565b80855291818116908115610496575060011461043d575b61026984610429818603826111b5565b60405191829160208352602083019061108f565b600081815292507fb10e2d527612073b26eecdfd717e6a320cf44b4afac2b0732d9fcbe2b7fa0cf65b82841061047e57505050810160200161042982610419565b80546020858701810191909152909301928101610466565b60ff191660208087019190915292151560051b850190920192506104299150839050610419565b346101b55760003660031901126101b5576007546040516001600160a01b039091168152602090f35b346101b55760803660031901126101b5576104ff6110cf565b60443567ffffffffffffffff81116101b55761051f9036906004016112d0565b9060643567ffffffffffffffff81116101b5576105409036906004016112d0565b9033600052600b60205260ff604060002054168015610c01575b15610bc3576001600160a01b03811615610b85576024356000526009602052604060002054610b3557600854916000198314610b1f57600183016008556040516105a381611199565b6000808252848152600260205260409020546001600160a01b031680151590859082610ae8575b6001600160a01b0386166000818152600360209081526040808320805460010190558583526002909152812080546001600160a01b031916831790559091907fddf252ad1be2c89b69c2b068fc378daa952ba7f163c4a11628f55a4df523b3ef9080a4610acf57823b610991575b5082600052600660205260406000209080519067ffffffffffffffff82116108b4578190610666845461115f565b601f8111610941575b50602090601f83116001146108d5576000926108ca575b50508160011b916000199060031b1c19161790555b7ff8e1a15aba9398e019f0b49df1a4fde98ee17ae345cb5f6b5e2c27f5033e8ce76020604051848152a16024356000526009602052816040600020556040519283608081011067ffffffffffffffff6080860111176108b45760808401604090815260243585526001600160a01b03838116602080880191825242848901908152606089018681526000898152600a909352949091209751885590516001880180546001600160a01b031916919093161790915551600286015551805190946003019067ffffffffffffffff81116108b457610777825461115f565b601f811161086c575b50806020968790601f8311600114610808576000926107fd575b50508160011b916000199060031b1c19161790555b827f8b6cbf16114cb9830a2b81f27418ea84b2ffb33dafcdca3f0a5a9242ef89e14b6040519386855260018060a01b031693806107f2602435958983019061108f565b0390a4604051908152f35b01519050878061079a565b60008581528981209350601f198516905b818110610855575090846001959493921061083c575b505050811b0190556107af565b015160001960f88460031b161c1916905587808061082f565b92938a600181928786015181550195019301610819565b826000526020600020601f830160051c810191602084106108aa575b601f0160051c01905b81811061089e5750610780565b60008155600101610891565b9091508190610888565b634e487b7160e01b600052604160045260246000fd5b015190508680610686565b9250836000526020600020906000935b601f1984168510610926576001945083601f1981161061090d575b505050811b01905561069b565b015160001960f88460031b161c19169055868080610900565b818101518355602094850194600190930192909101906108e5565b909150836000526020600020601f840160051c81016020851061098a575b90849392915b601f830160051c8201811061097b57505061066f565b60008155859450600101610965565b508061095f565b60409493929451602081806109cf630a85bd0160e11b958683523360048401526000602484015288604484015260806064840152608483019061108f565b038160006001600160a01b038b165af160009181610a8a575b50610a5057853d15610a48573d906109ff8261127d565b91610a0d60405193846111b5565b82523d6000602084013e5b81519182610a4157604051633250574960e11b81526001600160a01b0383166004820152602490fd5b6020915001fd5b606090610a18565b939492936001600160e01b03191603610a695784610638565b604051633250574960e11b81526001600160a01b0383166004820152602490fd5b9091506020813d602011610ac7575b81610aa6602093836111b5565b810103126101b557516001600160e01b0319811681036101b55790876109e8565b3d9150610a99565b6040516339e3563760e11b815260006004820152602490fd5b600082815260046020526040902080546001600160a01b0319169055806000526003602052604060002060001981540190556105ca565b634e487b7160e01b600052601160045260246000fd5b60405162461bcd60e51b815260206004820152602260248201527f4e465420616c7265616479206d696e74656420666f7220746869732064656261604482015261746560f01b6064820152608490fd5b60405162461bcd60e51b8152602060048201526016602482015275496e76616c69642077696e6e6572206164647265737360501b6044820152606490fd5b60405162461bcd60e51b8152602060048201526016602482015275139bdd08185d5d1a1bdc9a5e9959081d1bc81b5a5b9d60521b6044820152606490fd5b506007546001600160a01b0316331461055a565b346101b55760003660031901126101b557610c2e6112ee565b600780546001600160a01b031981169091556000906001600160a01b03167f8be0079c531659141344cd1fd0a4f28419497f9722a3daafe3b4186f6b6457e08280a3005b346101b55760203660031901126101b5576001600160a01b03610c936110cf565b168015610cb25760005260036020526020604060002054604051908152f35b6040516322718ad960e21b815260006004820152602490fd5b346101b55760203660031901126101b557600435600052600a6020526040600020805461026960018060a01b0360018401541692610d106003600283015492016111d7565b9060405194859485526020850152604084015260806060840152608083019061108f565b346101b55760203660031901126101b5576020610d526004356114b9565b6040516001600160a01b039091168152f35b346101b5576102d9610d75366110fb565b9060405192610d8384611199565b600084526102d383838361131a565b346101b5576102d9610da336611130565b90610dac6112ee565b60018060a01b0316600052600b60205260406000209060ff801983541691151516179055565b346101b55760203660031901126101b557600435600052600960205260206040600020541515604051908152f35b346101b5576102d9610e11366110fb565b9161131a565b346101b55760003660031901126101b5576008546000198101908111610b1f57602090604051908152f35b346101b55760403660031901126101b557610e5b6110cf565b602435610e67816114b9565b33151580610f16575b80610ee9575b610ed1576001600160a01b039283169282918491167f8c5be1e5ebec7d5bd14f71427d1e84f3dd0314c0f7b2291e5b200ac8c7c3b925600080a4600090815260046020526040902080546001600160a01b0319169091179055005b60405163a9fbf51f60e01b8152336004820152602490fd5b5060018060a01b038116600052600560205260406000203360005260205260ff6040600020541615610e76565b506001600160a01b038116331415610e70565b346101b55760203660031901126101b557600435610f46816114b9565b506000526004602052602060018060a01b0360406000205416604051908152f35b346101b55760003660031901126101b55760405160008054610f888161115f565b808452906001908181169081156104965750600114610fb15761026984610429818603826111b5565b600080805292507f290decd9548b62a8d60345a988386fc84ba6bc95484008f6362f93160ef3e5635b828410610ff257505050810160200161042982610419565b80546020858701810191909152909301928101610fda565b346101b55760203660031901126101b5576004359063ffffffff60e01b82168092036101b557602091632483248360e11b811490811561104c575b5015158152f35b6380ac58cd60e01b81149150811561107e575b811561106d575b5083611045565b6301ffc9a760e01b14905083611066565b635b5e139f60e01b8114915061105f565b919082519283825260005b8481106110bb575050826000602080949584010152601f8019910116010190565b60208183018101518483018201520161109a565b600435906001600160a01b03821682036101b557565b602435906001600160a01b03821682036101b557565b60609060031901126101b5576001600160a01b039060043582811681036101b5579160243590811681036101b5579060443590565b60409060031901126101b5576004356001600160a01b03811681036101b5579060243580151581036101b55790565b90600182811c9216801561118f575b602083101461117957565b634e487b7160e01b600052602260045260246000fd5b91607f169161116e565b6020810190811067ffffffffffffffff8211176108b457604052565b90601f8019910116810190811067ffffffffffffffff8211176108b457604052565b90604051918260008254926111eb8461115f565b90818452600194858116908160001461125a5750600114611217575b5050611215925003836111b5565b565b9093915060005260209081600020936000915b81831061124257505061121593508201013880611207565b8554888401850152948501948794509183019161122a565b91505061121594506020925060ff191682840152151560051b8201013880611207565b67ffffffffffffffff81116108b457601f01601f191660200190565b9291926112a58261127d565b916112b360405193846111b5565b8294818452818301116101b5578281602093846000960137010152565b9080601f830112156101b5578160206112eb93359101611299565b90565b6007546001600160a01b0316330361130257565b60405163118cdaa760e01b8152336004820152602490fd5b6001600160a01b0391821692909183156114a05760009282845282602095600287526040968488882054169687913315158061140a575b509060027fddf252ad1be2c89b69c2b068fc378daa952ba7f163c4a11628f55a4df523b3ef92846113d7575b858352600381528b8320805460010190558683525289812080546001600160a01b0319168517905580a416928383036113b65750505050565b6064945051926364283d7b60e01b8452600484015260248301526044820152fd5b600087815260046020526040902080546001600160a01b0319169055848352600381528b8320805460001901905561137d565b9193945091508061145f575b1561142657859291879138611351565b878688611443576024915190637e27328960e01b82526004820152fd5b604491519063177e802f60e01b82523360048301526024820152fd5b503387148015611484575b806114165750858252600481523385898420541614611416565b5086825260058152878220338352815260ff888320541661146a565b604051633250574960e11b815260006004820152602490fd5b6000818152600260205260409020546001600160a01b03169081156114dc575090565b60249060405190637e27328960e01b82526004820152fd5b90939192833b611506575b5050505050565b604051630a85bd0160e11b8082526001600160a01b03938416600483015295831660248201526044810191909152608060648201529492169260209291859061155390608483019061108f565b039483816000978189895af18691816115fe575b506115c8575050503d6000146115bf573d6115818161127d565b9061158f60405192836111b5565b81528093823d92013e5b825192836115ba57604051633250574960e11b815260048101849052602490fd5b019050fd5b60609250611599565b919450915063ffffffff60e01b16036115e6575038808080806114ff565b60249060405190633250574960e11b82526004820152fd5b9091508481813d831161163b575b61161681836111b5565b8101031261163757516001600160e01b031981168103611637579038611567565b8680fd5b503d61160c56fea26469706673582212205ad64eaece705a651eb4d424e138667f71fe2dcb777655b62d4185bd0dd8582f64736f6c63430008140033",
  "linkReferences": {},
  "deployedLinkReferences": {}
}